{
  "contractName": "ArtToken",
  "abi": [
    {
      "inputs": [],
      "stateMutability": "nonpayable",
      "type": "constructor"
    },
    {
      "anonymous": false,
      "inputs": [
        {
          "indexed": true,
          "internalType": "address",
          "name": "owner",
          "type": "address"
        },
        {
          "indexed": true,
          "internalType": "address",
          "name": "approved",
          "type": "address"
        },
        {
          "indexed": true,
          "internalType": "uint256",
          "name": "tokenId",
          "type": "uint256"
        }
      ],
      "name": "Approval",
      "type": "event"
    },
    {
      "anonymous": false,
      "inputs": [
        {
          "indexed": true,
          "internalType": "address",
          "name": "owner",
          "type": "address"
        },
        {
          "indexed": true,
          "internalType": "address",
          "name": "operator",
          "type": "address"
        },
        {
          "indexed": false,
          "internalType": "bool",
          "name": "approved",
          "type": "bool"
        }
      ],
      "name": "ApprovalForAll",
      "type": "event"
    },
    {
      "anonymous": false,
      "inputs": [
        {
          "indexed": true,
          "internalType": "address",
          "name": "from",
          "type": "address"
        },
        {
          "indexed": true,
          "internalType": "address",
          "name": "to",
          "type": "address"
        },
        {
          "indexed": true,
          "internalType": "uint256",
          "name": "tokenId",
          "type": "uint256"
        }
      ],
      "name": "Transfer",
      "type": "event"
    },
    {
      "inputs": [
        {
          "internalType": "uint256",
          "name": "",
          "type": "uint256"
        }
      ],
      "name": "Items",
      "outputs": [
        {
          "internalType": "uint256",
          "name": "id",
          "type": "uint256"
        },
        {
          "internalType": "address",
          "name": "creator",
          "type": "address"
        },
        {
          "internalType": "string",
          "name": "uri",
          "type": "string"
        }
      ],
      "stateMutability": "view",
      "type": "function",
      "constant": true
    },
    {
      "inputs": [
        {
          "internalType": "address",
          "name": "to",
          "type": "address"
        },
        {
          "internalType": "uint256",
          "name": "tokenId",
          "type": "uint256"
        }
      ],
      "name": "approve",
      "outputs": [],
      "stateMutability": "nonpayable",
      "type": "function"
    },
    {
      "inputs": [
        {
          "internalType": "address",
          "name": "owner",
          "type": "address"
        }
      ],
      "name": "balanceOf",
      "outputs": [
        {
          "internalType": "uint256",
          "name": "",
          "type": "uint256"
        }
      ],
      "stateMutability": "view",
      "type": "function",
      "constant": true
    },
    {
      "inputs": [
        {
          "internalType": "uint256",
          "name": "tokenId",
          "type": "uint256"
        }
      ],
      "name": "getApproved",
      "outputs": [
        {
          "internalType": "address",
          "name": "",
          "type": "address"
        }
      ],
      "stateMutability": "view",
      "type": "function",
      "constant": true
    },
    {
      "inputs": [
        {
          "internalType": "address",
          "name": "owner",
          "type": "address"
        },
        {
          "internalType": "address",
          "name": "operator",
          "type": "address"
        }
      ],
      "name": "isApprovedForAll",
      "outputs": [
        {
          "internalType": "bool",
          "name": "",
          "type": "bool"
        }
      ],
      "stateMutability": "view",
      "type": "function",
      "constant": true
    },
    {
      "inputs": [],
      "name": "marketplace",
      "outputs": [
        {
          "internalType": "address",
          "name": "",
          "type": "address"
        }
      ],
      "stateMutability": "view",
      "type": "function",
      "constant": true
    },
    {
      "inputs": [],
      "name": "name",
      "outputs": [
        {
          "internalType": "string",
          "name": "",
          "type": "string"
        }
      ],
      "stateMutability": "view",
      "type": "function",
      "constant": true
    },
    {
      "inputs": [
        {
          "internalType": "uint256",
          "name": "tokenId",
          "type": "uint256"
        }
      ],
      "name": "ownerOf",
      "outputs": [
        {
          "internalType": "address",
          "name": "",
          "type": "address"
        }
      ],
      "stateMutability": "view",
      "type": "function",
      "constant": true
    },
    {
      "inputs": [
        {
          "internalType": "address",
          "name": "from",
          "type": "address"
        },
        {
          "internalType": "address",
          "name": "to",
          "type": "address"
        },
        {
          "internalType": "uint256",
          "name": "tokenId",
          "type": "uint256"
        }
      ],
      "name": "safeTransferFrom",
      "outputs": [],
      "stateMutability": "nonpayable",
      "type": "function"
    },
    {
      "inputs": [
        {
          "internalType": "address",
          "name": "from",
          "type": "address"
        },
        {
          "internalType": "address",
          "name": "to",
          "type": "address"
        },
        {
          "internalType": "uint256",
          "name": "tokenId",
          "type": "uint256"
        },
        {
          "internalType": "bytes",
          "name": "data",
          "type": "bytes"
        }
      ],
      "name": "safeTransferFrom",
      "outputs": [],
      "stateMutability": "nonpayable",
      "type": "function"
    },
    {
      "inputs": [
        {
          "internalType": "address",
          "name": "operator",
          "type": "address"
        },
        {
          "internalType": "bool",
          "name": "approved",
          "type": "bool"
        }
      ],
      "name": "setApprovalForAll",
      "outputs": [],
      "stateMutability": "nonpayable",
      "type": "function"
    },
    {
      "inputs": [
        {
          "internalType": "bytes4",
          "name": "interfaceId",
          "type": "bytes4"
        }
      ],
      "name": "supportsInterface",
      "outputs": [
        {
          "internalType": "bool",
          "name": "",
          "type": "bool"
        }
      ],
      "stateMutability": "view",
      "type": "function",
      "constant": true
    },
    {
      "inputs": [],
      "name": "symbol",
      "outputs": [
        {
          "internalType": "string",
          "name": "",
          "type": "string"
        }
      ],
      "stateMutability": "view",
      "type": "function",
      "constant": true
    },
    {
      "inputs": [
        {
          "internalType": "uint256",
          "name": "index",
          "type": "uint256"
        }
      ],
      "name": "tokenByIndex",
      "outputs": [
        {
          "internalType": "uint256",
          "name": "",
          "type": "uint256"
        }
      ],
      "stateMutability": "view",
      "type": "function",
      "constant": true
    },
    {
      "inputs": [
        {
          "internalType": "address",
          "name": "owner",
          "type": "address"
        },
        {
          "internalType": "uint256",
          "name": "index",
          "type": "uint256"
        }
      ],
      "name": "tokenOfOwnerByIndex",
      "outputs": [
        {
          "internalType": "uint256",
          "name": "",
          "type": "uint256"
        }
      ],
      "stateMutability": "view",
      "type": "function",
      "constant": true
    },
    {
      "inputs": [],
      "name": "totalSupply",
      "outputs": [
        {
          "internalType": "uint256",
          "name": "",
          "type": "uint256"
        }
      ],
      "stateMutability": "view",
      "type": "function",
      "constant": true
    },
    {
      "inputs": [
        {
          "internalType": "address",
          "name": "from",
          "type": "address"
        },
        {
          "internalType": "address",
          "name": "to",
          "type": "address"
        },
        {
          "internalType": "uint256",
          "name": "tokenId",
          "type": "uint256"
        }
      ],
      "name": "transferFrom",
      "outputs": [],
      "stateMutability": "nonpayable",
      "type": "function"
    },
    {
      "inputs": [
        {
          "internalType": "string",
          "name": "uri",
          "type": "string"
        }
      ],
      "name": "mint",
      "outputs": [
        {
          "internalType": "uint256",
          "name": "",
          "type": "uint256"
        }
      ],
      "stateMutability": "nonpayable",
      "type": "function"
    },
    {
      "inputs": [
        {
          "internalType": "uint256",
          "name": "tokenId",
          "type": "uint256"
        }
      ],
      "name": "tokenURI",
      "outputs": [
        {
          "internalType": "string",
          "name": "",
          "type": "string"
        }
      ],
      "stateMutability": "view",
      "type": "function",
      "constant": true
    },
    {
      "inputs": [
        {
          "internalType": "address",
          "name": "market",
          "type": "address"
        }
      ],
      "name": "setMarketplace",
      "outputs": [],
      "stateMutability": "nonpayable",
      "type": "function"
    }
  ],
  "bytecode": "0x60806040523480156200001157600080fd5b506040518060400160405280600881526020017f417274546f6b656e0000000000000000000000000000000000000000000000008152506040518060400160405280600481526020017f4152544b00000000000000000000000000000000000000000000000000000000815250816000908051906020019062000096929190620000b8565b508060019080519060200190620000af929190620000b8565b505050620001cc565b828054620000c69062000197565b90600052602060002090601f016020900481019282620000ea576000855562000136565b82601f106200010557805160ff191683800117855562000136565b8280016001018555821562000136579182015b828111156200013557825182559160200191906001019062000118565b5b50905062000145919062000149565b5090565b5b80821115620001645760008160009055506001016200014a565b5090565b7f4e487b7100000000000000000000000000000000000000000000000000000000600052602260045260246000fd5b60006002820490506001821680620001b057607f821691505b602082108103620001c657620001c562000168565b5b50919050565b61311280620001dc6000396000f3fe608060405234801561001057600080fd5b506004361061012c5760003560e01c80636352211e116100ad578063abc8c7af11610071578063abc8c7af14610369578063b88d4fde14610387578063c87b56dd146103a3578063d85d3d27146103d3578063e985e9c5146104035761012c565b80636352211e146102b357806370a08231146102e357806373ad6c2d1461031357806395d89b411461032f578063a22cb4651461034d5761012c565b806318160ddd116100f457806318160ddd146101fd57806323b872dd1461021b5780632f745c591461023757806342842e0e146102675780634f6ccce7146102835761012c565b806301ffc9a71461013157806306fdde0314610161578063081812fc1461017f578063095ea7b3146101af57806317b47cc4146101cb575b600080fd5b61014b60048036038101906101469190612063565b610433565b60405161015891906120ab565b60405180910390f35b6101696104ad565b604051610176919061215f565b60405180910390f35b610199600480360381019061019491906121b7565b61053f565b6040516101a69190612225565b60405180910390f35b6101c960048036038101906101c4919061226c565b610585565b005b6101e560048036038101906101e091906121b7565b61069c565b6040516101f4939291906122bb565b60405180910390f35b61020561076e565b60405161021291906122f9565b60405180910390f35b61023560048036038101906102309190612314565b61077b565b005b610251600480360381019061024c919061226c565b6107db565b60405161025e91906122f9565b60405180910390f35b610281600480360381019061027c9190612314565b610880565b005b61029d600480360381019061029891906121b7565b6108a0565b6040516102aa91906122f9565b60405180910390f35b6102cd60048036038101906102c891906121b7565b610911565b6040516102da9190612225565b60405180910390f35b6102fd60048036038101906102f89190612367565b610997565b60405161030a91906122f9565b60405180910390f35b61032d60048036038101906103289190612367565b610a4e565b005b610337610a92565b604051610344919061215f565b60405180910390f35b610367600480360381019061036291906123c0565b610b24565b005b610371610b3a565b60405161037e9190612225565b60405180910390f35b6103a1600480360381019061039c9190612535565b610b60565b005b6103bd60048036038101906103b891906121b7565b610bc2565b6040516103ca919061215f565b60405180910390f35b6103ed60048036038101906103e89190612659565b610cb2565b6040516103fa91906122f9565b60405180910390f35b61041d600480360381019061041891906126a2565b610dc0565b60405161042a91906120ab565b60405180910390f35b60007f780e9d63000000000000000000000000000000000000000000000000000000007bffffffffffffffffffffffffffffffffffffffffffffffffffffffff1916827bffffffffffffffffffffffffffffffffffffffffffffffffffffffff191614806104a657506104a582610e54565b5b9050919050565b6060600080546104bc90612711565b80601f01602080910402602001604051908101604052809291908181526020018280546104e890612711565b80156105355780601f1061050a57610100808354040283529160200191610535565b820191906000526020600020905b81548152906001019060200180831161051857829003601f168201915b5050505050905090565b600061054a82610f36565b6004600083815260200190815260200160002060009054906101000a900473ffffffffffffffffffffffffffffffffffffffff169050919050565b600061059082610911565b90508073ffffffffffffffffffffffffffffffffffffffff168373ffffffffffffffffffffffffffffffffffffffff1603610600576040517f08c379a00000000000000000000000000000000000000000000000000000000081526004016105f7906127b4565b60405180910390fd5b8073ffffffffffffffffffffffffffffffffffffffff1661061f610f81565b73ffffffffffffffffffffffffffffffffffffffff16148061064e575061064d81610648610f81565b610dc0565b5b61068d576040517f08c379a000000000000000000000000000000000000000000000000000000000815260040161068490612846565b60405180910390fd5b6106978383610f89565b505050565b600c6020528060005260406000206000915090508060000154908060010160009054906101000a900473ffffffffffffffffffffffffffffffffffffffff16908060020180546106eb90612711565b80601f016020809104026020016040519081016040528092919081815260200182805461071790612711565b80156107645780601f1061073957610100808354040283529160200191610764565b820191906000526020600020905b81548152906001019060200180831161074757829003601f168201915b5050505050905083565b6000600880549050905090565b61078c610786610f81565b82611042565b6107cb576040517f08c379a00000000000000000000000000000000000000000000000000000000081526004016107c2906128d8565b60405180910390fd5b6107d68383836110d7565b505050565b60006107e683610997565b8210610827576040517f08c379a000000000000000000000000000000000000000000000000000000000815260040161081e9061296a565b60405180910390fd5b600660008473ffffffffffffffffffffffffffffffffffffffff1673ffffffffffffffffffffffffffffffffffffffff168152602001908152602001600020600083815260200190815260200160002054905092915050565b61089b83838360405180602001604052806000815250610b60565b505050565b60006108aa61076e565b82106108eb576040517f08c379a00000000000000000000000000000000000000000000000000000000081526004016108e2906129fc565b60405180910390fd5b600882815481106108ff576108fe612a1c565b5b90600052602060002001549050919050565b60008061091d836113d0565b9050600073ffffffffffffffffffffffffffffffffffffffff168173ffffffffffffffffffffffffffffffffffffffff160361098e576040517f08c379a000000000000000000000000000000000000000000000000000000000815260040161098590612a97565b60405180910390fd5b80915050919050565b60008073ffffffffffffffffffffffffffffffffffffffff168273ffffffffffffffffffffffffffffffffffffffff1603610a07576040517f08c379a00000000000000000000000000000000000000000000000000000000081526004016109fe90612b29565b60405180910390fd5b600360008373ffffffffffffffffffffffffffffffffffffffff1673ffffffffffffffffffffffffffffffffffffffff168152602001908152602001600020549050919050565b80600b60006101000a81548173ffffffffffffffffffffffffffffffffffffffff021916908373ffffffffffffffffffffffffffffffffffffffff16021790555050565b606060018054610aa190612711565b80601f0160208091040260200160405190810160405280929190818152602001828054610acd90612711565b8015610b1a5780601f10610aef57610100808354040283529160200191610b1a565b820191906000526020600020905b815481529060010190602001808311610afd57829003601f168201915b5050505050905090565b610b36610b2f610f81565b838361140d565b5050565b600b60009054906101000a900473ffffffffffffffffffffffffffffffffffffffff1681565b610b71610b6b610f81565b83611042565b610bb0576040517f08c379a0000000000000000000000000000000000000000000000000000000008152600401610ba7906128d8565b60405180910390fd5b610bbc84848484611579565b50505050565b6060610bcd826115d5565b610c0c576040517f08c379a0000000000000000000000000000000000000000000000000000000008152600401610c0390612bbb565b60405180910390fd5b600c60008381526020019081526020016000206002018054610c2d90612711565b80601f0160208091040260200160405190810160405280929190818152602001828054610c5990612711565b8015610ca65780601f10610c7b57610100808354040283529160200191610ca6565b820191906000526020600020905b815481529060010190602001808311610c8957829003601f168201915b50505050509050919050565b6000610cbe600a611616565b6000610cca600a61162c565b9050610cd6338261163a565b610d02600b60009054906101000a900473ffffffffffffffffffffffffffffffffffffffff1682610585565b60405180606001604052808281526020013373ffffffffffffffffffffffffffffffffffffffff16815260200184815250600c60008381526020019081526020016000206000820151816000015560208201518160010160006101000a81548173ffffffffffffffffffffffffffffffffffffffff021916908373ffffffffffffffffffffffffffffffffffffffff1602179055506040820151816002019080519060200190610db3929190611f54565b5090505080915050919050565b6000600560008473ffffffffffffffffffffffffffffffffffffffff1673ffffffffffffffffffffffffffffffffffffffff16815260200190815260200160002060008373ffffffffffffffffffffffffffffffffffffffff1673ffffffffffffffffffffffffffffffffffffffff16815260200190815260200160002060009054906101000a900460ff16905092915050565b60007f80ac58cd000000000000000000000000000000000000000000000000000000007bffffffffffffffffffffffffffffffffffffffffffffffffffffffff1916827bffffffffffffffffffffffffffffffffffffffffffffffffffffffff19161480610f1f57507f5b5e139f000000000000000000000000000000000000000000000000000000007bffffffffffffffffffffffffffffffffffffffffffffffffffffffff1916827bffffffffffffffffffffffffffffffffffffffffffffffffffffffff1916145b80610f2f5750610f2e82611658565b5b9050919050565b610f3f816115d5565b610f7e576040517f08c379a0000000000000000000000000000000000000000000000000000000008152600401610f7590612a97565b60405180910390fd5b50565b600033905090565b816004600083815260200190815260200160002060006101000a81548173ffffffffffffffffffffffffffffffffffffffff021916908373ffffffffffffffffffffffffffffffffffffffff160217905550808273ffffffffffffffffffffffffffffffffffffffff16610ffc83610911565b73ffffffffffffffffffffffffffffffffffffffff167f8c5be1e5ebec7d5bd14f71427d1e84f3dd0314c0f7b2291e5b200ac8c7c3b92560405160405180910390a45050565b60008061104e83610911565b90508073ffffffffffffffffffffffffffffffffffffffff168473ffffffffffffffffffffffffffffffffffffffff161480611090575061108f8185610dc0565b5b806110ce57508373ffffffffffffffffffffffffffffffffffffffff166110b68461053f565b73ffffffffffffffffffffffffffffffffffffffff16145b91505092915050565b8273ffffffffffffffffffffffffffffffffffffffff166110f782610911565b73ffffffffffffffffffffffffffffffffffffffff161461114d576040517f08c379a000000000000000000000000000000000000000000000000000000000815260040161114490612c4d565b60405180910390fd5b600073ffffffffffffffffffffffffffffffffffffffff168273ffffffffffffffffffffffffffffffffffffffff16036111bc576040517f08c379a00000000000000000000000000000000000000000000000000000000081526004016111b390612cdf565b60405180910390fd5b6111c983838360016116c2565b8273ffffffffffffffffffffffffffffffffffffffff166111e982610911565b73ffffffffffffffffffffffffffffffffffffffff161461123f576040517f08c379a000000000000000000000000000000000000000000000000000000000815260040161123690612c4d565b60405180910390fd5b6004600082815260200190815260200160002060006101000a81549073ffffffffffffffffffffffffffffffffffffffff02191690556001600360008573ffffffffffffffffffffffffffffffffffffffff1673ffffffffffffffffffffffffffffffffffffffff168152602001908152602001600020600082825403925050819055506001600360008473ffffffffffffffffffffffffffffffffffffffff1673ffffffffffffffffffffffffffffffffffffffff16815260200190815260200160002060008282540192505081905550816002600083815260200190815260200160002060006101000a81548173ffffffffffffffffffffffffffffffffffffffff021916908373ffffffffffffffffffffffffffffffffffffffff160217905550808273ffffffffffffffffffffffffffffffffffffffff168473ffffffffffffffffffffffffffffffffffffffff167fddf252ad1be2c89b69c2b068fc378daa952ba7f163c4a11628f55a4df523b3ef60405160405180910390a46113cb8383836001611820565b505050565b60006002600083815260200190815260200160002060009054906101000a900473ffffffffffffffffffffffffffffffffffffffff169050919050565b8173ffffffffffffffffffffffffffffffffffffffff168373ffffffffffffffffffffffffffffffffffffffff160361147b576040517f08c379a000000000000000000000000000000000000000000000000000000000815260040161147290612d4b565b60405180910390fd5b80600560008573ffffffffffffffffffffffffffffffffffffffff1673ffffffffffffffffffffffffffffffffffffffff16815260200190815260200160002060008473ffffffffffffffffffffffffffffffffffffffff1673ffffffffffffffffffffffffffffffffffffffff16815260200190815260200160002060006101000a81548160ff0219169083151502179055508173ffffffffffffffffffffffffffffffffffffffff168373ffffffffffffffffffffffffffffffffffffffff167f17307eab39ab6107e8899845ad3d59bd9653f200f220920489ca2b5937696c318360405161156c91906120ab565b60405180910390a3505050565b6115848484846110d7565b61159084848484611826565b6115cf576040517f08c379a00000000000000000000000000000000000000000000000000000000081526004016115c690612ddd565b60405180910390fd5b50505050565b60008073ffffffffffffffffffffffffffffffffffffffff166115f7836113d0565b73ffffffffffffffffffffffffffffffffffffffff1614159050919050565b6001816000016000828254019250508190555050565b600081600001549050919050565b6116548282604051806020016040528060008152506119ad565b5050565b60007f01ffc9a7000000000000000000000000000000000000000000000000000000007bffffffffffffffffffffffffffffffffffffffffffffffffffffffff1916827bffffffffffffffffffffffffffffffffffffffffffffffffffffffff1916149050919050565b6116ce84848484611a08565b6001811115611712576040517f08c379a000000000000000000000000000000000000000000000000000000000815260040161170990612e6f565b60405180910390fd5b6000829050600073ffffffffffffffffffffffffffffffffffffffff168573ffffffffffffffffffffffffffffffffffffffff16036117595761175481611a0e565b611798565b8373ffffffffffffffffffffffffffffffffffffffff168573ffffffffffffffffffffffffffffffffffffffff1614611797576117968582611a57565b5b5b600073ffffffffffffffffffffffffffffffffffffffff168473ffffffffffffffffffffffffffffffffffffffff16036117da576117d581611bc4565b611819565b8473ffffffffffffffffffffffffffffffffffffffff168473ffffffffffffffffffffffffffffffffffffffff1614611818576118178482611c95565b5b5b5050505050565b50505050565b60006118478473ffffffffffffffffffffffffffffffffffffffff16611d14565b156119a0578373ffffffffffffffffffffffffffffffffffffffff1663150b7a02611870610f81565b8786866040518563ffffffff1660e01b81526004016118929493929190612ee4565b6020604051808303816000875af19250505080156118ce57506040513d601f19601f820116820180604052508101906118cb9190612f45565b60015b611950573d80600081146118fe576040519150601f19603f3d011682016040523d82523d6000602084013e611903565b606091505b506000815103611948576040517f08c379a000000000000000000000000000000000000000000000000000000000815260040161193f90612ddd565b60405180910390fd5b805181602001fd5b63150b7a0260e01b7bffffffffffffffffffffffffffffffffffffffffffffffffffffffff1916817bffffffffffffffffffffffffffffffffffffffffffffffffffffffff1916149150506119a5565b600190505b949350505050565b6119b78383611d37565b6119c46000848484611826565b611a03576040517f08c379a00000000000000000000000000000000000000000000000000000000081526004016119fa90612ddd565b60405180910390fd5b505050565b50505050565b6008805490506009600083815260200190815260200160002081905550600881908060018154018082558091505060019003906000526020600020016000909190919091505550565b60006001611a6484610997565b611a6e9190612fa1565b9050600060076000848152602001908152602001600020549050818114611b53576000600660008673ffffffffffffffffffffffffffffffffffffffff1673ffffffffffffffffffffffffffffffffffffffff168152602001908152602001600020600084815260200190815260200160002054905080600660008773ffffffffffffffffffffffffffffffffffffffff1673ffffffffffffffffffffffffffffffffffffffff168152602001908152602001600020600084815260200190815260200160002081905550816007600083815260200190815260200160002081905550505b6007600084815260200190815260200160002060009055600660008573ffffffffffffffffffffffffffffffffffffffff1673ffffffffffffffffffffffffffffffffffffffff16815260200190815260200160002060008381526020019081526020016000206000905550505050565b60006001600880549050611bd89190612fa1565b9050600060096000848152602001908152602001600020549050600060088381548110611c0857611c07612a1c565b5b906000526020600020015490508060088381548110611c2a57611c29612a1c565b5b906000526020600020018190555081600960008381526020019081526020016000208190555060096000858152602001908152602001600020600090556008805480611c7957611c78612fd5565b5b6001900381819060005260206000200160009055905550505050565b6000611ca083610997565b905081600660008573ffffffffffffffffffffffffffffffffffffffff1673ffffffffffffffffffffffffffffffffffffffff168152602001908152602001600020600083815260200190815260200160002081905550806007600084815260200190815260200160002081905550505050565b6000808273ffffffffffffffffffffffffffffffffffffffff163b119050919050565b600073ffffffffffffffffffffffffffffffffffffffff168273ffffffffffffffffffffffffffffffffffffffff1603611da6576040517f08c379a0000000000000000000000000000000000000000000000000000000008152600401611d9d90613050565b60405180910390fd5b611daf816115d5565b15611def576040517f08c379a0000000000000000000000000000000000000000000000000000000008152600401611de6906130bc565b60405180910390fd5b611dfd6000838360016116c2565b611e06816115d5565b15611e46576040517f08c379a0000000000000000000000000000000000000000000000000000000008152600401611e3d906130bc565b60405180910390fd5b6001600360008473ffffffffffffffffffffffffffffffffffffffff1673ffffffffffffffffffffffffffffffffffffffff16815260200190815260200160002060008282540192505081905550816002600083815260200190815260200160002060006101000a81548173ffffffffffffffffffffffffffffffffffffffff021916908373ffffffffffffffffffffffffffffffffffffffff160217905550808273ffffffffffffffffffffffffffffffffffffffff16600073ffffffffffffffffffffffffffffffffffffffff167fddf252ad1be2c89b69c2b068fc378daa952ba7f163c4a11628f55a4df523b3ef60405160405180910390a4611f50600083836001611820565b5050565b828054611f6090612711565b90600052602060002090601f016020900481019282611f825760008555611fc9565b82601f10611f9b57805160ff1916838001178555611fc9565b82800160010185558215611fc9579182015b82811115611fc8578251825591602001919060010190611fad565b5b509050611fd69190611fda565b5090565b5b80821115611ff3576000816000905550600101611fdb565b5090565b6000604051905090565b600080fd5b600080fd5b60007fffffffff0000000000000000000000000000000000000000000000000000000082169050919050565b6120408161200b565b811461204b57600080fd5b50565b60008135905061205d81612037565b92915050565b60006020828403121561207957612078612001565b5b60006120878482850161204e565b91505092915050565b60008115159050919050565b6120a581612090565b82525050565b60006020820190506120c0600083018461209c565b92915050565b600081519050919050565b600082825260208201905092915050565b60005b838110156121005780820151818401526020810190506120e5565b8381111561210f576000848401525b50505050565b6000601f19601f8301169050919050565b6000612131826120c6565b61213b81856120d1565b935061214b8185602086016120e2565b61215481612115565b840191505092915050565b600060208201905081810360008301526121798184612126565b905092915050565b6000819050919050565b61219481612181565b811461219f57600080fd5b50565b6000813590506121b18161218b565b92915050565b6000602082840312156121cd576121cc612001565b5b60006121db848285016121a2565b91505092915050565b600073ffffffffffffffffffffffffffffffffffffffff82169050919050565b600061220f826121e4565b9050919050565b61221f81612204565b82525050565b600060208201905061223a6000830184612216565b92915050565b61224981612204565b811461225457600080fd5b50565b60008135905061226681612240565b92915050565b6000806040838503121561228357612282612001565b5b600061229185828601612257565b92505060206122a2858286016121a2565b9150509250929050565b6122b581612181565b82525050565b60006060820190506122d060008301866122ac565b6122dd6020830185612216565b81810360408301526122ef8184612126565b9050949350505050565b600060208201905061230e60008301846122ac565b92915050565b60008060006060848603121561232d5761232c612001565b5b600061233b86828701612257565b935050602061234c86828701612257565b925050604061235d868287016121a2565b9150509250925092565b60006020828403121561237d5761237c612001565b5b600061238b84828501612257565b91505092915050565b61239d81612090565b81146123a857600080fd5b50565b6000813590506123ba81612394565b92915050565b600080604083850312156123d7576123d6612001565b5b60006123e585828601612257565b92505060206123f6858286016123ab565b9150509250929050565b600080fd5b600080fd5b7f4e487b7100000000000000000000000000000000000000000000000000000000600052604160045260246000fd5b61244282612115565b810181811067ffffffffffffffff821117156124615761246061240a565b5b80604052505050565b6000612474611ff7565b90506124808282612439565b919050565b600067ffffffffffffffff8211156124a05761249f61240a565b5b6124a982612115565b9050602081019050919050565b82818337600083830152505050565b60006124d86124d384612485565b61246a565b9050828152602081018484840111156124f4576124f3612405565b5b6124ff8482856124b6565b509392505050565b600082601f83011261251c5761251b612400565b5b813561252c8482602086016124c5565b91505092915050565b6000806000806080858703121561254f5761254e612001565b5b600061255d87828801612257565b945050602061256e87828801612257565b935050604061257f878288016121a2565b925050606085013567ffffffffffffffff8111156125a05761259f612006565b5b6125ac87828801612507565b91505092959194509250565b600067ffffffffffffffff8211156125d3576125d261240a565b5b6125dc82612115565b9050602081019050919050565b60006125fc6125f7846125b8565b61246a565b90508281526020810184848401111561261857612617612405565b5b6126238482856124b6565b509392505050565b600082601f8301126126405761263f612400565b5b81356126508482602086016125e9565b91505092915050565b60006020828403121561266f5761266e612001565b5b600082013567ffffffffffffffff81111561268d5761268c612006565b5b6126998482850161262b565b91505092915050565b600080604083850312156126b9576126b8612001565b5b60006126c785828601612257565b92505060206126d885828601612257565b9150509250929050565b7f4e487b7100000000000000000000000000000000000000000000000000000000600052602260045260246000fd5b6000600282049050600182168061272957607f821691505b60208210810361273c5761273b6126e2565b5b50919050565b7f4552433732313a20617070726f76616c20746f2063757272656e74206f776e6560008201527f7200000000000000000000000000000000000000000000000000000000000000602082015250565b600061279e6021836120d1565b91506127a982612742565b604082019050919050565b600060208201905081810360008301526127cd81612791565b9050919050565b7f4552433732313a20617070726f76652063616c6c6572206973206e6f7420746f60008201527f6b656e206f776e6572206f7220617070726f76656420666f7220616c6c000000602082015250565b6000612830603d836120d1565b915061283b826127d4565b604082019050919050565b6000602082019050818103600083015261285f81612823565b9050919050565b7f4552433732313a2063616c6c6572206973206e6f7420746f6b656e206f776e6560008201527f72206f7220617070726f76656400000000000000000000000000000000000000602082015250565b60006128c2602d836120d1565b91506128cd82612866565b604082019050919050565b600060208201905081810360008301526128f1816128b5565b9050919050565b7f455243373231456e756d657261626c653a206f776e657220696e646578206f7560008201527f74206f6620626f756e6473000000000000000000000000000000000000000000602082015250565b6000612954602b836120d1565b915061295f826128f8565b604082019050919050565b6000602082019050818103600083015261298381612947565b9050919050565b7f455243373231456e756d657261626c653a20676c6f62616c20696e646578206f60008201527f7574206f6620626f756e64730000000000000000000000000000000000000000602082015250565b60006129e6602c836120d1565b91506129f18261298a565b604082019050919050565b60006020820190508181036000830152612a15816129d9565b9050919050565b7f4e487b7100000000000000000000000000000000000000000000000000000000600052603260045260246000fd5b7f4552433732313a20696e76616c696420746f6b656e2049440000000000000000600082015250565b6000612a816018836120d1565b9150612a8c82612a4b565b602082019050919050565b60006020820190508181036000830152612ab081612a74565b9050919050565b7f4552433732313a2061646472657373207a65726f206973206e6f74206120766160008201527f6c6964206f776e65720000000000000000000000000000000000000000000000602082015250565b6000612b136029836120d1565b9150612b1e82612ab7565b604082019050919050565b60006020820190508181036000830152612b4281612b06565b9050919050565b7f45524337323155524953746f726167653a2055524920717565727920666f722060008201527f6e6f6e6578697374656e7420746f6b656e000000000000000000000000000000602082015250565b6000612ba56031836120d1565b9150612bb082612b49565b604082019050919050565b60006020820190508181036000830152612bd481612b98565b9050919050565b7f4552433732313a207472616e736665722066726f6d20696e636f72726563742060008201527f6f776e6572000000000000000000000000000000000000000000000000000000602082015250565b6000612c376025836120d1565b9150612c4282612bdb565b604082019050919050565b60006020820190508181036000830152612c6681612c2a565b9050919050565b7f4552433732313a207472616e7366657220746f20746865207a65726f2061646460008201527f7265737300000000000000000000000000000000000000000000000000000000602082015250565b6000612cc96024836120d1565b9150612cd482612c6d565b604082019050919050565b60006020820190508181036000830152612cf881612cbc565b9050919050565b7f4552433732313a20617070726f766520746f2063616c6c657200000000000000600082015250565b6000612d356019836120d1565b9150612d4082612cff565b602082019050919050565b60006020820190508181036000830152612d6481612d28565b9050919050565b7f4552433732313a207472616e7366657220746f206e6f6e20455243373231526560008201527f63656976657220696d706c656d656e7465720000000000000000000000000000602082015250565b6000612dc76032836120d1565b9150612dd282612d6b565b604082019050919050565b60006020820190508181036000830152612df681612dba565b9050919050565b7f455243373231456e756d657261626c653a20636f6e736563757469766520747260008201527f616e7366657273206e6f7420737570706f727465640000000000000000000000602082015250565b6000612e596035836120d1565b9150612e6482612dfd565b604082019050919050565b60006020820190508181036000830152612e8881612e4c565b9050919050565b600081519050919050565b600082825260208201905092915050565b6000612eb682612e8f565b612ec08185612e9a565b9350612ed08185602086016120e2565b612ed981612115565b840191505092915050565b6000608082019050612ef96000830187612216565b612f066020830186612216565b612f1360408301856122ac565b8181036060830152612f258184612eab565b905095945050505050565b600081519050612f3f81612037565b92915050565b600060208284031215612f5b57612f5a612001565b5b6000612f6984828501612f30565b91505092915050565b7f4e487b7100000000000000000000000000000000000000000000000000000000600052601160045260246000fd5b6000612fac82612181565b9150612fb783612181565b925082821015612fca57612fc9612f72565b5b828203905092915050565b7f4e487b7100000000000000000000000000000000000000000000000000000000600052603160045260246000fd5b7f4552433732313a206d696e7420746f20746865207a65726f2061646472657373600082015250565b600061303a6020836120d1565b915061304582613004565b602082019050919050565b600060208201905081810360008301526130698161302d565b9050919050565b7f4552433732313a20746f6b656e20616c7265616479206d696e74656400000000600082015250565b60006130a6601c836120d1565b91506130b182613070565b602082019050919050565b600060208201905081810360008301526130d581613099565b905091905056fea2646970667358221220093e9d1630a7ab996cd62df234e29744b4b00b3c9ddae5bbddc32b886401da4664736f6c634300080d0033",
  "immutableReferences": {},
  "source": "// SPDX-License-Identifier: MIT\r\npragma solidity ^0.8.13;\r\n\r\nimport \"@openzeppelin/contracts/token/ERC721/ERC721.sol\";\r\nimport \"@openzeppelin/contracts/token/ERC721/extensions/ERC721Enumerable.sol\";\r\nimport \"@openzeppelin/contracts/token/ERC721/extensions/ERC721URIStorage.sol\";\r\nimport \"@openzeppelin/contracts/utils/Counters.sol\";\r\n\r\ncontract ArtToken is ERC721Enumerable{\r\n  using Counters for Counters.Counter;\r\n\r\n  Counters.Counter private _tokenIds;\r\n  address public marketplace;\r\n\r\n  struct Item {\r\n    uint256 id;\r\n    address creator;\r\n    string uri;//metadata url\r\n  }\r\n\r\n  mapping(uint256 => Item) public Items; //id => Item\r\n\r\n  constructor () ERC721(\"ArtToken\", \"ARTK\") {}\r\n\r\n  function mint(string memory uri) public returns (uint256){\r\n    _tokenIds.increment();\r\n    uint256 newItemId = _tokenIds.current();\r\n    _safeMint(msg.sender, newItemId);\r\n    approve(marketplace, newItemId);\r\n\r\n    Items[newItemId] = Item({\r\n      id: newItemId, \r\n      creator: msg.sender,\r\n      uri: uri\r\n    });\r\n\r\n    return newItemId;\r\n  }\r\n\r\n  function tokenURI(uint256 tokenId) public view override returns (string memory) {\r\n    require(_exists(tokenId), \"ERC721URIStorage: URI query for nonexistent token\");\r\n    return Items[tokenId].uri;\r\n  }\r\n\r\n  function setMarketplace(address market) public {\r\n    //require(msg.sender ==);\r\n    marketplace = market;\r\n  }\r\n\r\n}",
  "sourcePath": "D:\\Web\\Blockchain\\NFT-Marketplace\\contracts\\ArtToken.sol",
  "compiler": {
    "name": "solc",
    "version": "0.8.13+commit.abaa5c0e.Emscripten.clang"
  },
  "schemaVersion": "3.4.16",
  "updatedAt": "2024-11-28T13:57:18.556Z",
  "networkType": "ethereum",
  "devdoc": {
    "kind": "dev",
    "methods": {
      "approve(address,uint256)": {
        "details": "See {IERC721-approve}."
      },
      "balanceOf(address)": {
        "details": "See {IERC721-balanceOf}."
      },
      "getApproved(uint256)": {
        "details": "See {IERC721-getApproved}."
      },
      "isApprovedForAll(address,address)": {
        "details": "See {IERC721-isApprovedForAll}."
      },
      "name()": {
        "details": "See {IERC721Metadata-name}."
      },
      "ownerOf(uint256)": {
        "details": "See {IERC721-ownerOf}."
      },
      "safeTransferFrom(address,address,uint256)": {
        "details": "See {IERC721-safeTransferFrom}."
      },
      "safeTransferFrom(address,address,uint256,bytes)": {
        "details": "See {IERC721-safeTransferFrom}."
      },
      "setApprovalForAll(address,bool)": {
        "details": "See {IERC721-setApprovalForAll}."
      },
      "supportsInterface(bytes4)": {
        "details": "See {IERC165-supportsInterface}."
      },
      "symbol()": {
        "details": "See {IERC721Metadata-symbol}."
      },
      "tokenByIndex(uint256)": {
        "details": "See {IERC721Enumerable-tokenByIndex}."
      },
      "tokenOfOwnerByIndex(address,uint256)": {
        "details": "See {IERC721Enumerable-tokenOfOwnerByIndex}."
      },
      "tokenURI(uint256)": {
        "details": "See {IERC721Metadata-tokenURI}."
      },
      "totalSupply()": {
        "details": "See {IERC721Enumerable-totalSupply}."
      },
      "transferFrom(address,address,uint256)": {
        "details": "See {IERC721-transferFrom}."
      }
    },
    "version": 1
  },
  "userdoc": {
    "kind": "user",
    "methods": {},
    "version": 1
  }
}